{
  "_format": "hh-sol-artifact-1",
  "contractName": "MyEpicGame",
  "sourceName": "contracts/MyEpicGame.sol",
  "abi": [
    {
      "inputs": [
        {
          "internalType": "string[]",
          "name": "characterNames",
          "type": "string[]"
        },
        {
          "internalType": "string[]",
          "name": "characterImageURIs",
          "type": "string[]"
        },
        {
          "internalType": "uint256[]",
          "name": "characterHp",
          "type": "uint256[]"
        },
        {
          "internalType": "uint256[]",
          "name": "characterAttackDmg",
          "type": "uint256[]"
        },
        {
          "internalType": "string[]",
          "name": "characterTypes",
          "type": "string[]"
        },
        {
          "internalType": "string",
          "name": "bossName",
          "type": "string"
        },
        {
          "internalType": "string",
          "name": "bossImageURI",
          "type": "string"
        },
        {
          "internalType": "uint256",
          "name": "bossHp",
          "type": "uint256"
        },
        {
          "internalType": "uint256",
          "name": "bossAttackDamage",
          "type": "uint256"
        },
        {
          "internalType": "string",
          "name": "bossCharaterType",
          "type": "string"
        }
      ],
      "stateMutability": "nonpayable",
      "type": "constructor"
    },
    {
      "anonymous": false,
      "inputs": [
        {
          "indexed": true,
          "internalType": "address",
          "name": "owner",
          "type": "address"
        },
        {
          "indexed": true,
          "internalType": "address",
          "name": "approved",
          "type": "address"
        },
        {
          "indexed": true,
          "internalType": "uint256",
          "name": "tokenId",
          "type": "uint256"
        }
      ],
      "name": "Approval",
      "type": "event"
    },
    {
      "anonymous": false,
      "inputs": [
        {
          "indexed": true,
          "internalType": "address",
          "name": "owner",
          "type": "address"
        },
        {
          "indexed": true,
          "internalType": "address",
          "name": "operator",
          "type": "address"
        },
        {
          "indexed": false,
          "internalType": "bool",
          "name": "approved",
          "type": "bool"
        }
      ],
      "name": "ApprovalForAll",
      "type": "event"
    },
    {
      "anonymous": false,
      "inputs": [
        {
          "indexed": false,
          "internalType": "uint256",
          "name": "newBossHp",
          "type": "uint256"
        },
        {
          "indexed": false,
          "internalType": "uint256",
          "name": "newPlayerHp",
          "type": "uint256"
        }
      ],
      "name": "AttackComplete",
      "type": "event"
    },
    {
      "anonymous": false,
      "inputs": [
        {
          "indexed": false,
          "internalType": "address",
          "name": "sender",
          "type": "address"
        },
        {
          "indexed": false,
          "internalType": "uint256",
          "name": "tokenId",
          "type": "uint256"
        },
        {
          "indexed": false,
          "internalType": "uint256",
          "name": "characterIndex",
          "type": "uint256"
        }
      ],
      "name": "CharacterNFTMinted",
      "type": "event"
    },
    {
      "anonymous": false,
      "inputs": [
        {
          "indexed": true,
          "internalType": "address",
          "name": "from",
          "type": "address"
        },
        {
          "indexed": true,
          "internalType": "address",
          "name": "to",
          "type": "address"
        },
        {
          "indexed": true,
          "internalType": "uint256",
          "name": "tokenId",
          "type": "uint256"
        }
      ],
      "name": "Transfer",
      "type": "event"
    },
    {
      "inputs": [
        {
          "internalType": "address",
          "name": "to",
          "type": "address"
        },
        {
          "internalType": "uint256",
          "name": "tokenId",
          "type": "uint256"
        }
      ],
      "name": "approve",
      "outputs": [],
      "stateMutability": "nonpayable",
      "type": "function"
    },
    {
      "inputs": [],
      "name": "attackBoss",
      "outputs": [],
      "stateMutability": "nonpayable",
      "type": "function"
    },
    {
      "inputs": [
        {
          "internalType": "address",
          "name": "owner",
          "type": "address"
        }
      ],
      "name": "balanceOf",
      "outputs": [
        {
          "internalType": "uint256",
          "name": "",
          "type": "uint256"
        }
      ],
      "stateMutability": "view",
      "type": "function"
    },
    {
      "inputs": [],
      "name": "bigBoss",
      "outputs": [
        {
          "internalType": "string",
          "name": "name",
          "type": "string"
        },
        {
          "internalType": "string",
          "name": "imageURI",
          "type": "string"
        },
        {
          "internalType": "uint256",
          "name": "hp",
          "type": "uint256"
        },
        {
          "internalType": "uint256",
          "name": "maxHp",
          "type": "uint256"
        },
        {
          "internalType": "uint256",
          "name": "attackDamage",
          "type": "uint256"
        },
        {
          "internalType": "string",
          "name": "characterType",
          "type": "string"
        }
      ],
      "stateMutability": "view",
      "type": "function"
    },
    {
      "inputs": [],
      "name": "checkIfUserHasNFT",
      "outputs": [
        {
          "components": [
            {
              "internalType": "uint256",
              "name": "characterIndex",
              "type": "uint256"
            },
            {
              "internalType": "string",
              "name": "name",
              "type": "string"
            },
            {
              "internalType": "string",
              "name": "imageURI",
              "type": "string"
            },
            {
              "internalType": "uint256",
              "name": "hp",
              "type": "uint256"
            },
            {
              "internalType": "uint256",
              "name": "maxHp",
              "type": "uint256"
            },
            {
              "internalType": "uint256",
              "name": "attackDamage",
              "type": "uint256"
            },
            {
              "internalType": "string",
              "name": "characterType",
              "type": "string"
            }
          ],
          "internalType": "struct MyEpicGame.CharacterAttributes",
          "name": "",
          "type": "tuple"
        }
      ],
      "stateMutability": "view",
      "type": "function"
    },
    {
      "inputs": [],
      "name": "getAllDefaultCharacters",
      "outputs": [
        {
          "components": [
            {
              "internalType": "uint256",
              "name": "characterIndex",
              "type": "uint256"
            },
            {
              "internalType": "string",
              "name": "name",
              "type": "string"
            },
            {
              "internalType": "string",
              "name": "imageURI",
              "type": "string"
            },
            {
              "internalType": "uint256",
              "name": "hp",
              "type": "uint256"
            },
            {
              "internalType": "uint256",
              "name": "maxHp",
              "type": "uint256"
            },
            {
              "internalType": "uint256",
              "name": "attackDamage",
              "type": "uint256"
            },
            {
              "internalType": "string",
              "name": "characterType",
              "type": "string"
            }
          ],
          "internalType": "struct MyEpicGame.CharacterAttributes[]",
          "name": "",
          "type": "tuple[]"
        }
      ],
      "stateMutability": "view",
      "type": "function"
    },
    {
      "inputs": [
        {
          "internalType": "uint256",
          "name": "tokenId",
          "type": "uint256"
        }
      ],
      "name": "getApproved",
      "outputs": [
        {
          "internalType": "address",
          "name": "",
          "type": "address"
        }
      ],
      "stateMutability": "view",
      "type": "function"
    },
    {
      "inputs": [],
      "name": "getBigBoss",
      "outputs": [
        {
          "components": [
            {
              "internalType": "string",
              "name": "name",
              "type": "string"
            },
            {
              "internalType": "string",
              "name": "imageURI",
              "type": "string"
            },
            {
              "internalType": "uint256",
              "name": "hp",
              "type": "uint256"
            },
            {
              "internalType": "uint256",
              "name": "maxHp",
              "type": "uint256"
            },
            {
              "internalType": "uint256",
              "name": "attackDamage",
              "type": "uint256"
            },
            {
              "internalType": "string",
              "name": "characterType",
              "type": "string"
            }
          ],
          "internalType": "struct MyEpicGame.BigBoss",
          "name": "",
          "type": "tuple"
        }
      ],
      "stateMutability": "view",
      "type": "function"
    },
    {
      "inputs": [
        {
          "internalType": "address",
          "name": "owner",
          "type": "address"
        },
        {
          "internalType": "address",
          "name": "operator",
          "type": "address"
        }
      ],
      "name": "isApprovedForAll",
      "outputs": [
        {
          "internalType": "bool",
          "name": "",
          "type": "bool"
        }
      ],
      "stateMutability": "view",
      "type": "function"
    },
    {
      "inputs": [
        {
          "internalType": "uint256",
          "name": "_characterIndex",
          "type": "uint256"
        }
      ],
      "name": "mintCharacterNFT",
      "outputs": [],
      "stateMutability": "nonpayable",
      "type": "function"
    },
    {
      "inputs": [],
      "name": "name",
      "outputs": [
        {
          "internalType": "string",
          "name": "",
          "type": "string"
        }
      ],
      "stateMutability": "view",
      "type": "function"
    },
    {
      "inputs": [
        {
          "internalType": "uint256",
          "name": "",
          "type": "uint256"
        }
      ],
      "name": "nftHolderAttributes",
      "outputs": [
        {
          "internalType": "uint256",
          "name": "characterIndex",
          "type": "uint256"
        },
        {
          "internalType": "string",
          "name": "name",
          "type": "string"
        },
        {
          "internalType": "string",
          "name": "imageURI",
          "type": "string"
        },
        {
          "internalType": "uint256",
          "name": "hp",
          "type": "uint256"
        },
        {
          "internalType": "uint256",
          "name": "maxHp",
          "type": "uint256"
        },
        {
          "internalType": "uint256",
          "name": "attackDamage",
          "type": "uint256"
        },
        {
          "internalType": "string",
          "name": "characterType",
          "type": "string"
        }
      ],
      "stateMutability": "view",
      "type": "function"
    },
    {
      "inputs": [
        {
          "internalType": "address",
          "name": "",
          "type": "address"
        }
      ],
      "name": "nftHolders",
      "outputs": [
        {
          "internalType": "uint256",
          "name": "",
          "type": "uint256"
        }
      ],
      "stateMutability": "view",
      "type": "function"
    },
    {
      "inputs": [
        {
          "internalType": "uint256",
          "name": "tokenId",
          "type": "uint256"
        }
      ],
      "name": "ownerOf",
      "outputs": [
        {
          "internalType": "address",
          "name": "",
          "type": "address"
        }
      ],
      "stateMutability": "view",
      "type": "function"
    },
    {
      "inputs": [
        {
          "internalType": "address",
          "name": "from",
          "type": "address"
        },
        {
          "internalType": "address",
          "name": "to",
          "type": "address"
        },
        {
          "internalType": "uint256",
          "name": "tokenId",
          "type": "uint256"
        }
      ],
      "name": "safeTransferFrom",
      "outputs": [],
      "stateMutability": "nonpayable",
      "type": "function"
    },
    {
      "inputs": [
        {
          "internalType": "address",
          "name": "from",
          "type": "address"
        },
        {
          "internalType": "address",
          "name": "to",
          "type": "address"
        },
        {
          "internalType": "uint256",
          "name": "tokenId",
          "type": "uint256"
        },
        {
          "internalType": "bytes",
          "name": "_data",
          "type": "bytes"
        }
      ],
      "name": "safeTransferFrom",
      "outputs": [],
      "stateMutability": "nonpayable",
      "type": "function"
    },
    {
      "inputs": [
        {
          "internalType": "address",
          "name": "operator",
          "type": "address"
        },
        {
          "internalType": "bool",
          "name": "approved",
          "type": "bool"
        }
      ],
      "name": "setApprovalForAll",
      "outputs": [],
      "stateMutability": "nonpayable",
      "type": "function"
    },
    {
      "inputs": [
        {
          "internalType": "bytes4",
          "name": "interfaceId",
          "type": "bytes4"
        }
      ],
      "name": "supportsInterface",
      "outputs": [
        {
          "internalType": "bool",
          "name": "",
          "type": "bool"
        }
      ],
      "stateMutability": "view",
      "type": "function"
    },
    {
      "inputs": [],
      "name": "symbol",
      "outputs": [
        {
          "internalType": "string",
          "name": "",
          "type": "string"
        }
      ],
      "stateMutability": "view",
      "type": "function"
    },
    {
      "inputs": [
        {
          "internalType": "uint256",
          "name": "_tokenId",
          "type": "uint256"
        }
      ],
      "name": "tokenURI",
      "outputs": [
        {
          "internalType": "string",
          "name": "",
          "type": "string"
        }
      ],
      "stateMutability": "view",
      "type": "function"
    },
    {
      "inputs": [
        {
          "internalType": "address",
          "name": "from",
          "type": "address"
        },
        {
          "internalType": "address",
          "name": "to",
          "type": "address"
        },
        {
          "internalType": "uint256",
          "name": "tokenId",
          "type": "uint256"
        }
      ],
      "name": "transferFrom",
      "outputs": [],
      "stateMutability": "nonpayable",
      "type": "function"
    }
  ],
  "bytecode": "0x60806040523480156200001157600080fd5b5060405162005e0638038062005e06833981810160405281019062000037919062000b81565b6040518060400160405280600881526020017f506f6b656d6f6e730000000000000000000000000000000000000000000000008152506040518060400160405280600781526020017f504f4b454d4f4e000000000000000000000000000000000000000000000000008152508160009080519060200190620000bb92919062000914565b508060019080519060200190620000d492919062000914565b5050506040518060c0016040528086815260200185815260200184815260200184815260200183815260200182815250600a60008201518160000190805190602001906200012492919062000914565b5060208201518160010190805190602001906200014392919062000914565b5060408201518160020155606082015181600301556080820151816004015560a08201518160050190805190602001906200018092919062000914565b50905050620002e56040518060600160405280602a815260200162005ddc602a9139600a6000018054620001b49062000f6b565b80601f0160208091040260200160405190810160405280929190818152602001828054620001e29062000f6b565b8015620002335780601f10620002075761010080835404028352916020019162000233565b820191906000526020600020905b8154815290600101906020018083116200021557829003601f168201915b5050505050600a60020154600a6001018054620002509062000f6b565b80601f01602080910402602001604051908101604052809291908181526020018280546200027e9062000f6b565b8015620002cf5780601f10620002a357610100808354040283529160200191620002cf565b820191906000526020600020905b815481529060010190602001808311620002b157829003601f168201915b50505050506200082960201b620021a21760201c565b60005b8a51811015620008015760076040518060e001604052808381526020018d84815181106200033f577f4e487b7100000000000000000000000000000000000000000000000000000000600052603260045260246000fd5b602002602001015181526020018c848151811062000386577f4e487b7100000000000000000000000000000000000000000000000000000000600052603260045260246000fd5b602002602001015181526020018b8481518110620003cd577f4e487b7100000000000000000000000000000000000000000000000000000000600052603260045260246000fd5b602002602001015181526020018b848151811062000414577f4e487b7100000000000000000000000000000000000000000000000000000000600052603260045260246000fd5b602002602001015181526020018a84815181106200045b577f4e487b7100000000000000000000000000000000000000000000000000000000600052603260045260246000fd5b60200260200101518152602001898481518110620004a2577f4e487b7100000000000000000000000000000000000000000000000000000000600052603260045260246000fd5b60200260200101518152509080600181540180825580915050600190039060005260206000209060070201600090919091909150600082015181600001556020820151816001019080519060200190620004fe92919062000914565b5060408201518160020190805190602001906200051d92919062000914565b50606082015181600301556080820151816004015560a0820151816005015560c08201518160060190805190602001906200055a92919062000914565b5050506000600782815481106200059a577f4e487b7100000000000000000000000000000000000000000000000000000000600052603260045260246000fd5b90600052602060002090600702016040518060e001604052908160008201548152602001600182018054620005cf9062000f6b565b80601f0160208091040260200160405190810160405280929190818152602001828054620005fd9062000f6b565b80156200064e5780601f1062000622576101008083540402835291602001916200064e565b820191906000526020600020905b8154815290600101906020018083116200063057829003601f168201915b50505050508152602001600282018054620006699062000f6b565b80601f0160208091040260200160405190810160405280929190818152602001828054620006979062000f6b565b8015620006e85780601f10620006bc57610100808354040283529160200191620006e8565b820191906000526020600020905b815481529060010190602001808311620006ca57829003601f168201915b50505050508152602001600382015481526020016004820154815260200160058201548152602001600682018054620007219062000f6b565b80601f01602080910402602001604051908101604052809291908181526020018280546200074f9062000f6b565b8015620007a05780601f106200077457610100808354040283529160200191620007a0565b820191906000526020600020905b8154815290600101906020018083116200078257829003601f168201915b5050505050815250509050620007e960405180606001604052806025815260200162005db7602591398260200151836060015184604001516200082960201b620021a21760201c565b50600181620007f9919062000ece565b9050620002e8565b50620008196006620008d560201b620022441760201c565b5050505050505050505062001059565b620008cf8484848460405160240162000846949392919062000d8b565b6040516020818303038152906040527f8d142cdd000000000000000000000000000000000000000000000000000000007bffffffffffffffffffffffffffffffffffffffffffffffffffffffff19166020820180517bffffffffffffffffffffffffffffffffffffffffffffffffffffffff8381831617835250505050620008eb60201b60201c565b50505050565b6001816000016000828254019250508190555050565b60008151905060006a636f6e736f6c652e6c6f679050602083016000808483855afa5050505050565b828054620009229062000f6b565b90600052602060002090601f01602090048101928262000946576000855562000992565b82601f106200096157805160ff191683800117855562000992565b8280016001018555821562000992579182015b828111156200099157825182559160200191906001019062000974565b5b509050620009a19190620009a5565b5090565b5b80821115620009c0576000816000905550600101620009a6565b5090565b6000620009db620009d58462000e21565b62000ded565b9050808382526020820190508260005b8581101562000a1f578151850162000a04888262000b3d565b845260208401935060208301925050600181019050620009eb565b5050509392505050565b600062000a4062000a3a8462000e50565b62000ded565b9050808382526020820190508285602086028201111562000a6057600080fd5b60005b8581101562000a94578162000a79888262000b6a565b84526020840193506020830192505060018101905062000a63565b5050509392505050565b600062000ab562000aaf8462000e7f565b62000ded565b90508281526020810184848401111562000ace57600080fd5b62000adb84828562000f35565b509392505050565b600082601f83011262000af557600080fd5b815162000b07848260208601620009c4565b91505092915050565b600082601f83011262000b2257600080fd5b815162000b3484826020860162000a29565b91505092915050565b600082601f83011262000b4f57600080fd5b815162000b6184826020860162000a9e565b91505092915050565b60008151905062000b7b816200103f565b92915050565b6000806000806000806000806000806101408b8d03121562000ba257600080fd5b60008b015167ffffffffffffffff81111562000bbd57600080fd5b62000bcb8d828e0162000ae3565b9a505060208b015167ffffffffffffffff81111562000be957600080fd5b62000bf78d828e0162000ae3565b99505060408b015167ffffffffffffffff81111562000c1557600080fd5b62000c238d828e0162000b10565b98505060608b015167ffffffffffffffff81111562000c4157600080fd5b62000c4f8d828e0162000b10565b97505060808b015167ffffffffffffffff81111562000c6d57600080fd5b62000c7b8d828e0162000ae3565b96505060a08b015167ffffffffffffffff81111562000c9957600080fd5b62000ca78d828e0162000b3d565b95505060c08b015167ffffffffffffffff81111562000cc557600080fd5b62000cd38d828e0162000b3d565b94505060e062000ce68d828e0162000b6a565b93505061010062000cfa8d828e0162000b6a565b9250506101208b015167ffffffffffffffff81111562000d1957600080fd5b62000d278d828e0162000b3d565b9150509295989b9194979a5092959850565b600062000d468262000eb2565b62000d52818562000ebd565b935062000d6481856020860162000f35565b62000d6f816200102e565b840191505092915050565b62000d858162000f2b565b82525050565b6000608082019050818103600083015262000da7818762000d39565b9050818103602083015262000dbd818662000d39565b905062000dce604083018562000d7a565b818103606083015262000de2818462000d39565b905095945050505050565b6000604051905081810181811067ffffffffffffffff8211171562000e175762000e1662000fff565b5b8060405250919050565b600067ffffffffffffffff82111562000e3f5762000e3e62000fff565b5b602082029050602081019050919050565b600067ffffffffffffffff82111562000e6e5762000e6d62000fff565b5b602082029050602081019050919050565b600067ffffffffffffffff82111562000e9d5762000e9c62000fff565b5b601f19601f8301169050602081019050919050565b600081519050919050565b600082825260208201905092915050565b600062000edb8262000f2b565b915062000ee88362000f2b565b9250827fffffffffffffffffffffffffffffffffffffffffffffffffffffffffffffffff0382111562000f205762000f1f62000fa1565b5b828201905092915050565b6000819050919050565b60005b8381101562000f5557808201518184015260208101905062000f38565b8381111562000f65576000848401525b50505050565b6000600282049050600182168062000f8457607f821691505b6020821081141562000f9b5762000f9a62000fd0565b5b50919050565b7f4e487b7100000000000000000000000000000000000000000000000000000000600052601160045260246000fd5b7f4e487b7100000000000000000000000000000000000000000000000000000000600052602260045260246000fd5b7f4e487b7100000000000000000000000000000000000000000000000000000000600052604160045260246000fd5b6000601f19601f8301169050919050565b6200104a8162000f2b565b81146200105657600080fd5b50565b614d4e80620010696000396000f3fe608060405234801561001057600080fd5b50600436106101375760003560e01c806395d89b41116100b8578063b953084e1161007c578063b953084e1461036b578063c87b56dd14610389578063c8cf27f4146103b9578063d4f24c5b146103d7578063e985e9c5146103e1578063f8b81ef71461041157610137565b806395d89b41146102bc57806398da4c95146102da578063a22cb46514610310578063a9c326791461032c578063b88d4fde1461034f57610137565b806323b872dd116100ff57806323b872dd146101f457806342842e0e146102105780636352211e1461022c57806370a082311461025c5780637df124a11461028c57610137565b806301ffc9a71461013c5780630665f9611461016c57806306fdde031461018a578063081812fc146101a8578063095ea7b3146101d8575b600080fd5b6101566004803603810190610151919061348a565b61042d565b60405161016391906142dc565b60405180910390f35b61017461050f565b604051610181919061468a565b60405180910390f35b6101926106fd565b60405161019f91906142f7565b60405180910390f35b6101c260048036038101906101bd91906134dc565b61078f565b6040516101cf919061421c565b60405180910390f35b6101f260048036038101906101ed919061344e565b610814565b005b61020e60048036038101906102099190613348565b61092c565b005b61022a60048036038101906102259190613348565b61098c565b005b610246600480360381019061024191906134dc565b6109ac565b604051610253919061421c565b60405180910390f35b610276600480360381019061027191906132e3565b610a5e565b60405161028391906146ce565b60405180910390f35b6102a660048036038101906102a191906132e3565b610b16565b6040516102b391906146ce565b60405180910390f35b6102c4610b2e565b6040516102d191906142f7565b60405180910390f35b6102f460048036038101906102ef91906134dc565b610bc0565b60405161030797969594939291906146e9565b60405180910390f35b61032a60048036038101906103259190613412565b610d9a565b005b610334610f1b565b604051610346969594939291906143c6565b60405180910390f35b61036960048036038101906103649190613397565b6110dd565b005b61037361113f565b60405161038091906142ba565b60405180910390f35b6103a3600480360381019061039e91906134dc565b61137c565b6040516103b091906142f7565b60405180910390f35b6103c161162f565b6040516103ce91906146ac565b60405180910390f35b6103df611899565b005b6103fb60048036038101906103f6919061330c565b611c24565b60405161040891906142dc565b60405180910390f35b61042b600480360381019061042691906134dc565b611cb8565b005b60007f80ac58cd000000000000000000000000000000000000000000000000000000007bffffffffffffffffffffffffffffffffffffffffffffffffffffffff1916827bffffffffffffffffffffffffffffffffffffffffffffffffffffffff191614806104f857507f5b5e139f000000000000000000000000000000000000000000000000000000007bffffffffffffffffffffffffffffffffffffffffffffffffffffffff1916827bffffffffffffffffffffffffffffffffffffffffffffffffffffffff1916145b8061050857506105078261225a565b5b9050919050565b6105176130fc565b600a6040518060c001604052908160008201805461053490614a4f565b80601f016020809104026020016040519081016040528092919081815260200182805461056090614a4f565b80156105ad5780601f10610582576101008083540402835291602001916105ad565b820191906000526020600020905b81548152906001019060200180831161059057829003601f168201915b505050505081526020016001820180546105c690614a4f565b80601f01602080910402602001604051908101604052809291908181526020018280546105f290614a4f565b801561063f5780601f106106145761010080835404028352916020019161063f565b820191906000526020600020905b81548152906001019060200180831161062257829003601f168201915b5050505050815260200160028201548152602001600382015481526020016004820154815260200160058201805461067690614a4f565b80601f01602080910402602001604051908101604052809291908181526020018280546106a290614a4f565b80156106ef5780601f106106c4576101008083540402835291602001916106ef565b820191906000526020600020905b8154815290600101906020018083116106d257829003601f168201915b505050505081525050905090565b60606000805461070c90614a4f565b80601f016020809104026020016040519081016040528092919081815260200182805461073890614a4f565b80156107855780601f1061075a57610100808354040283529160200191610785565b820191906000526020600020905b81548152906001019060200180831161076857829003601f168201915b5050505050905090565b600061079a826122c4565b6107d9576040517f08c379a00000000000000000000000000000000000000000000000000000000081526004016107d0906145ea565b60405180910390fd5b6004600083815260200190815260200160002060009054906101000a900473ffffffffffffffffffffffffffffffffffffffff169050919050565b600061081f826109ac565b90508073ffffffffffffffffffffffffffffffffffffffff168373ffffffffffffffffffffffffffffffffffffffff161415610890576040517f08c379a00000000000000000000000000000000000000000000000000000000081526004016108879061462a565b60405180910390fd5b8073ffffffffffffffffffffffffffffffffffffffff166108af612330565b73ffffffffffffffffffffffffffffffffffffffff1614806108de57506108dd816108d8612330565b611c24565b5b61091d576040517f08c379a00000000000000000000000000000000000000000000000000000000081526004016109149061456a565b60405180910390fd5b6109278383612338565b505050565b61093d610937612330565b826123f1565b61097c576040517f08c379a00000000000000000000000000000000000000000000000000000000081526004016109739061464a565b60405180910390fd5b6109878383836124cf565b505050565b6109a7838383604051806020016040528060008152506110dd565b505050565b6000806002600084815260200190815260200160002060009054906101000a900473ffffffffffffffffffffffffffffffffffffffff169050600073ffffffffffffffffffffffffffffffffffffffff168173ffffffffffffffffffffffffffffffffffffffff161415610a55576040517f08c379a0000000000000000000000000000000000000000000000000000000008152600401610a4c906145aa565b60405180910390fd5b80915050919050565b60008073ffffffffffffffffffffffffffffffffffffffff168273ffffffffffffffffffffffffffffffffffffffff161415610acf576040517f08c379a0000000000000000000000000000000000000000000000000000000008152600401610ac69061458a565b60405180910390fd5b600360008373ffffffffffffffffffffffffffffffffffffffff1673ffffffffffffffffffffffffffffffffffffffff168152602001908152602001600020549050919050565b60096020528060005260406000206000915090505481565b606060018054610b3d90614a4f565b80601f0160208091040260200160405190810160405280929190818152602001828054610b6990614a4f565b8015610bb65780601f10610b8b57610100808354040283529160200191610bb6565b820191906000526020600020905b815481529060010190602001808311610b9957829003601f168201915b5050505050905090565b6008602052806000526040600020600091509050806000015490806001018054610be990614a4f565b80601f0160208091040260200160405190810160405280929190818152602001828054610c1590614a4f565b8015610c625780601f10610c3757610100808354040283529160200191610c62565b820191906000526020600020905b815481529060010190602001808311610c4557829003601f168201915b505050505090806002018054610c7790614a4f565b80601f0160208091040260200160405190810160405280929190818152602001828054610ca390614a4f565b8015610cf05780601f10610cc557610100808354040283529160200191610cf0565b820191906000526020600020905b815481529060010190602001808311610cd357829003601f168201915b505050505090806003015490806004015490806005015490806006018054610d1790614a4f565b80601f0160208091040260200160405190810160405280929190818152602001828054610d4390614a4f565b8015610d905780601f10610d6557610100808354040283529160200191610d90565b820191906000526020600020905b815481529060010190602001808311610d7357829003601f168201915b5050505050905087565b610da2612330565b73ffffffffffffffffffffffffffffffffffffffff168273ffffffffffffffffffffffffffffffffffffffff161415610e10576040517f08c379a0000000000000000000000000000000000000000000000000000000008152600401610e079061450a565b60405180910390fd5b8060056000610e1d612330565b73ffffffffffffffffffffffffffffffffffffffff1673ffffffffffffffffffffffffffffffffffffffff16815260200190815260200160002060008473ffffffffffffffffffffffffffffffffffffffff1673ffffffffffffffffffffffffffffffffffffffff16815260200190815260200160002060006101000a81548160ff0219169083151502179055508173ffffffffffffffffffffffffffffffffffffffff16610eca612330565b73ffffffffffffffffffffffffffffffffffffffff167f17307eab39ab6107e8899845ad3d59bd9653f200f220920489ca2b5937696c3183604051610f0f91906142dc565b60405180910390a35050565b600a806000018054610f2c90614a4f565b80601f0160208091040260200160405190810160405280929190818152602001828054610f5890614a4f565b8015610fa55780601f10610f7a57610100808354040283529160200191610fa5565b820191906000526020600020905b815481529060010190602001808311610f8857829003601f168201915b505050505090806001018054610fba90614a4f565b80601f0160208091040260200160405190810160405280929190818152602001828054610fe690614a4f565b80156110335780601f1061100857610100808354040283529160200191611033565b820191906000526020600020905b81548152906001019060200180831161101657829003601f168201915b50505050509080600201549080600301549080600401549080600501805461105a90614a4f565b80601f016020809104026020016040519081016040528092919081815260200182805461108690614a4f565b80156110d35780601f106110a8576101008083540402835291602001916110d3565b820191906000526020600020905b8154815290600101906020018083116110b657829003601f168201915b5050505050905086565b6110ee6110e8612330565b836123f1565b61112d576040517f08c379a00000000000000000000000000000000000000000000000000000000081526004016111249061464a565b60405180910390fd5b6111398484848461272b565b50505050565b60606007805480602002602001604051908101604052809291908181526020016000905b8282101561137357838290600052602060002090600702016040518060e0016040529081600082015481526020016001820180546111a090614a4f565b80601f01602080910402602001604051908101604052809291908181526020018280546111cc90614a4f565b80156112195780601f106111ee57610100808354040283529160200191611219565b820191906000526020600020905b8154815290600101906020018083116111fc57829003601f168201915b5050505050815260200160028201805461123290614a4f565b80601f016020809104026020016040519081016040528092919081815260200182805461125e90614a4f565b80156112ab5780601f10611280576101008083540402835291602001916112ab565b820191906000526020600020905b81548152906001019060200180831161128e57829003601f168201915b505050505081526020016003820154815260200160048201548152602001600582015481526020016006820180546112e290614a4f565b80601f016020809104026020016040519081016040528092919081815260200182805461130e90614a4f565b801561135b5780601f106113305761010080835404028352916020019161135b565b820191906000526020600020905b81548152906001019060200180831161133e57829003601f168201915b50505050508152505081526020019060010190611163565b50505050905090565b60606000600860008481526020019081526020016000206040518060e0016040529081600082015481526020016001820180546113b890614a4f565b80601f01602080910402602001604051908101604052809291908181526020018280546113e490614a4f565b80156114315780601f1061140657610100808354040283529160200191611431565b820191906000526020600020905b81548152906001019060200180831161141457829003601f168201915b5050505050815260200160028201805461144a90614a4f565b80601f016020809104026020016040519081016040528092919081815260200182805461147690614a4f565b80156114c35780601f10611498576101008083540402835291602001916114c3565b820191906000526020600020905b8154815290600101906020018083116114a657829003601f168201915b505050505081526020016003820154815260200160048201548152602001600582015481526020016006820180546114fa90614a4f565b80601f016020809104026020016040519081016040528092919081815260200182805461152690614a4f565b80156115735780601f1061154857610100808354040283529160200191611573565b820191906000526020600020905b81548152906001019060200180831161155657829003601f168201915b5050505050815250509050600061158d8260600151612787565b9050600061159e8360800151612787565b905060006115af8460a00151612787565b905060006115fb85602001516115c489612787565b87604001518787878b60c001516040516020016115e7979695949392919061413d565b604051602081830303815290604052612934565b905060008160405160200161161091906141fa565b6040516020818303038152906040529050809650505050505050919050565b611637613132565b6000600960003373ffffffffffffffffffffffffffffffffffffffff1673ffffffffffffffffffffffffffffffffffffffff168152602001908152602001600020549050600081111561188857600860008281526020019081526020016000206040518060e0016040529081600082015481526020016001820180546116bc90614a4f565b80601f01602080910402602001604051908101604052809291908181526020018280546116e890614a4f565b80156117355780601f1061170a57610100808354040283529160200191611735565b820191906000526020600020905b81548152906001019060200180831161171857829003601f168201915b5050505050815260200160028201805461174e90614a4f565b80601f016020809104026020016040519081016040528092919081815260200182805461177a90614a4f565b80156117c75780601f1061179c576101008083540402835291602001916117c7565b820191906000526020600020905b8154815290600101906020018083116117aa57829003601f168201915b505050505081526020016003820154815260200160048201548152602001600582015481526020016006820180546117fe90614a4f565b80601f016020809104026020016040519081016040528092919081815260200182805461182a90614a4f565b80156118775780601f1061184c57610100808354040283529160200191611877565b820191906000526020600020905b81548152906001019060200180831161185a57829003601f168201915b505050505081525050915050611896565b611890613132565b80925050505b90565b6000600960003373ffffffffffffffffffffffffffffffffffffffff1673ffffffffffffffffffffffffffffffffffffffff16815260200190815260200160002054905060006008600083815260200190815260200160002090506119ac6040518060600160405280603c8152602001614cdd603c913982600101805461191f90614a4f565b80601f016020809104026020016040519081016040528092919081815260200182805461194b90614a4f565b80156119985780601f1061196d57610100808354040283529160200191611998565b820191906000526020600020905b81548152906001019060200180831161197b57829003601f168201915b505050505083600301548460050154612af2565b611a846040518060400160405280601b81526020017f426f73732025732068617320257320485020616e642025732041440000000000815250600a60000180546119f590614a4f565b80601f0160208091040260200160405190810160405280929190818152602001828054611a2190614a4f565b8015611a6e5780601f10611a4357610100808354040283529160200191611a6e565b820191906000526020600020905b815481529060010190602001808311611a5157829003601f168201915b5050505050600a60020154600a60040154612af2565b6000816003015411611acb576040517f08c379a0000000000000000000000000000000000000000000000000000000008152600401611ac29061454a565b60405180910390fd5b6000600a6002015411611b13576040517f08c379a0000000000000000000000000000000000000000000000000000000008152600401611b0a9061466a565b60405180910390fd5b8060050154600a600201541015611b34576000600a60020181905550611b53565b8060050154600a60020154611b499190614965565b600a600201819055505b600a6004015481600301541015611b735760008160030181905550611b91565b600a600401548160030154611b889190614965565b81600301819055505b611bb8604051806060016040528060228152602001614cbb60229139600a60020154612b94565b611bde604051806060016040528060288152602001614c65602891398260030154612b94565b7f838ab28464562786a6c4ab2311964b82fa60bd9b14aa7e856af1f3f18d41a414600a600201548260030154604051611c1892919061476d565b60405180910390a15050565b6000600560008473ffffffffffffffffffffffffffffffffffffffff1673ffffffffffffffffffffffffffffffffffffffff16815260200190815260200160002060008373ffffffffffffffffffffffffffffffffffffffff1673ffffffffffffffffffffffffffffffffffffffff16815260200190815260200160002060009054906101000a900460ff16905092915050565b6000611cc46006612c30565b9050611cd03382612c3e565b6040518060e0016040528083815260200160078481548110611d1b577f4e487b7100000000000000000000000000000000000000000000000000000000600052603260045260246000fd5b90600052602060002090600702016001018054611d3790614a4f565b80601f0160208091040260200160405190810160405280929190818152602001828054611d6390614a4f565b8015611db05780601f10611d8557610100808354040283529160200191611db0565b820191906000526020600020905b815481529060010190602001808311611d9357829003601f168201915b5050505050815260200160078481548110611df4577f4e487b7100000000000000000000000000000000000000000000000000000000600052603260045260246000fd5b90600052602060002090600702016002018054611e1090614a4f565b80601f0160208091040260200160405190810160405280929190818152602001828054611e3c90614a4f565b8015611e895780601f10611e5e57610100808354040283529160200191611e89565b820191906000526020600020905b815481529060010190602001808311611e6c57829003601f168201915b5050505050815260200160078481548110611ecd577f4e487b7100000000000000000000000000000000000000000000000000000000600052603260045260246000fd5b906000526020600020906007020160030154815260200160078481548110611f1e577f4e487b7100000000000000000000000000000000000000000000000000000000600052603260045260246000fd5b906000526020600020906007020160030154815260200160078481548110611f6f577f4e487b7100000000000000000000000000000000000000000000000000000000600052603260045260246000fd5b906000526020600020906007020160050154815260200160078481548110611fc0577f4e487b7100000000000000000000000000000000000000000000000000000000600052603260045260246000fd5b90600052602060002090600702016006018054611fdc90614a4f565b80601f016020809104026020016040519081016040528092919081815260200182805461200890614a4f565b80156120555780601f1061202a57610100808354040283529160200191612055565b820191906000526020600020905b81548152906001019060200180831161203857829003601f168201915b50505050508152506008600083815260200190815260200160002060008201518160000155602082015181600101908051906020019061209692919061316f565b5060408201518160020190805190602001906120b392919061316f565b50606082015181600301556080820151816004015560a0820151816005015560c08201518160060190805190602001906120ee92919061316f565b509050506121156040518060600160405280602e8152602001614c8d602e91398284612c5c565b80600960003373ffffffffffffffffffffffffffffffffffffffff1673ffffffffffffffffffffffffffffffffffffffff168152602001908152602001600020819055506121636006612244565b7f4bc303fd457a97b4691b9af582ce71868a3d258638c8d4f8c60988a0f0bfb8cd33828460405161219693929190614283565b60405180910390a15050565b61223e848484846040516024016121bc9493929190614319565b6040516020818303038152906040527f8d142cdd000000000000000000000000000000000000000000000000000000007bffffffffffffffffffffffffffffffffffffffffffffffffffffffff19166020820180517bffffffffffffffffffffffffffffffffffffffffffffffffffffffff8381831617835250505050612cfb565b50505050565b6001816000016000828254019250508190555050565b60007f01ffc9a7000000000000000000000000000000000000000000000000000000007bffffffffffffffffffffffffffffffffffffffffffffffffffffffff1916827bffffffffffffffffffffffffffffffffffffffffffffffffffffffff1916149050919050565b60008073ffffffffffffffffffffffffffffffffffffffff166002600084815260200190815260200160002060009054906101000a900473ffffffffffffffffffffffffffffffffffffffff1673ffffffffffffffffffffffffffffffffffffffff1614159050919050565b600033905090565b816004600083815260200190815260200160002060006101000a81548173ffffffffffffffffffffffffffffffffffffffff021916908373ffffffffffffffffffffffffffffffffffffffff160217905550808273ffffffffffffffffffffffffffffffffffffffff166123ab836109ac565b73ffffffffffffffffffffffffffffffffffffffff167f8c5be1e5ebec7d5bd14f71427d1e84f3dd0314c0f7b2291e5b200ac8c7c3b92560405160405180910390a45050565b60006123fc826122c4565b61243b576040517f08c379a00000000000000000000000000000000000000000000000000000000081526004016124329061452a565b60405180910390fd5b6000612446836109ac565b90508073ffffffffffffffffffffffffffffffffffffffff168473ffffffffffffffffffffffffffffffffffffffff1614806124b557508373ffffffffffffffffffffffffffffffffffffffff1661249d8461078f565b73ffffffffffffffffffffffffffffffffffffffff16145b806124c657506124c58185611c24565b5b91505092915050565b8273ffffffffffffffffffffffffffffffffffffffff166124ef826109ac565b73ffffffffffffffffffffffffffffffffffffffff1614612545576040517f08c379a000000000000000000000000000000000000000000000000000000000815260040161253c9061460a565b60405180910390fd5b600073ffffffffffffffffffffffffffffffffffffffff168273ffffffffffffffffffffffffffffffffffffffff1614156125b5576040517f08c379a00000000000000000000000000000000000000000000000000000000081526004016125ac906144ea565b60405180910390fd5b6125c0838383612d24565b6125cb600082612338565b6001600360008573ffffffffffffffffffffffffffffffffffffffff1673ffffffffffffffffffffffffffffffffffffffff168152602001908152602001600020600082825461261b9190614965565b925050819055506001600360008473ffffffffffffffffffffffffffffffffffffffff1673ffffffffffffffffffffffffffffffffffffffff16815260200190815260200160002060008282546126729190614884565b92505081905550816002600083815260200190815260200160002060006101000a81548173ffffffffffffffffffffffffffffffffffffffff021916908373ffffffffffffffffffffffffffffffffffffffff160217905550808273ffffffffffffffffffffffffffffffffffffffff168473ffffffffffffffffffffffffffffffffffffffff167fddf252ad1be2c89b69c2b068fc378daa952ba7f163c4a11628f55a4df523b3ef60405160405180910390a4505050565b6127368484846124cf565b61274284848484612d29565b612781576040517f08c379a0000000000000000000000000000000000000000000000000000000008152600401612778906144aa565b60405180910390fd5b50505050565b606060008214156127cf576040518060400160405280600181526020017f3000000000000000000000000000000000000000000000000000000000000000815250905061292f565b600082905060005b600082146128015780806127ea90614a81565b915050600a826127fa91906148da565b91506127d7565b60008167ffffffffffffffff811115612843577f4e487b7100000000000000000000000000000000000000000000000000000000600052604160045260246000fd5b6040519080825280601f01601f1916602001820160405280156128755781602001600182028036833780820191505090505b5090505b600085146129285760018261288e9190614965565b9150600a8561289d9190614aca565b60306128a99190614884565b60f81b8183815181106128e5577f4e487b7100000000000000000000000000000000000000000000000000000000600052603260045260246000fd5b60200101907effffffffffffffffffffffffffffffffffffffffffffffffffffffffffffff1916908160001a905350600a8561292191906148da565b9450612879565b8093505050505b919050565b6060600082519050600081141561295d5760405180602001604052806000815250915050612aed565b6000600360028361296e9190614884565b61297891906148da565b6004612984919061490b565b905060006020826129959190614884565b67ffffffffffffffff8111156129d4577f4e487b7100000000000000000000000000000000000000000000000000000000600052604160045260246000fd5b6040519080825280601f01601f191660200182016040528015612a065781602001600182028036833780820191505090505b5090506000604051806060016040528060408152602001614c25604091399050600181016020830160005b86811015612aaa5760038101905062ffffff818a015116603f8160121c168401518060081b905060ff603f83600c1c1686015116810190508060081b905060ff603f8360061c1686015116810190508060081b905060ff603f831686015116810190508060e01b90508084526004840193505050612a31565b506003860660018114612ac45760028114612ad457612adf565b613d3d60f01b6002830352612adf565b603d60f81b60018303525b508484525050819450505050505b919050565b612b8e84848484604051602401612b0c9493929190614373565b6040516020818303038152906040527fd5cf17d0000000000000000000000000000000000000000000000000000000007bffffffffffffffffffffffffffffffffffffffffffffffffffffffff19166020820180517bffffffffffffffffffffffffffffffffffffffffffffffffffffffff8381831617835250505050612cfb565b50505050565b612c2c8282604051602401612baa92919061443c565b6040516020818303038152906040527f9710a9d0000000000000000000000000000000000000000000000000000000007bffffffffffffffffffffffffffffffffffffffffffffffffffffffff19166020820180517bffffffffffffffffffffffffffffffffffffffffffffffffffffffff8381831617835250505050612cfb565b5050565b600081600001549050919050565b612c58828260405180602001604052806000815250612ec0565b5050565b612cf6838383604051602401612c749392919061446c565b6040516020818303038152906040527f969cdd03000000000000000000000000000000000000000000000000000000007bffffffffffffffffffffffffffffffffffffffffffffffffffffffff19166020820180517bffffffffffffffffffffffffffffffffffffffffffffffffffffffff8381831617835250505050612cfb565b505050565b60008151905060006a636f6e736f6c652e6c6f679050602083016000808483855afa5050505050565b505050565b6000612d4a8473ffffffffffffffffffffffffffffffffffffffff16612f1b565b15612eb3578373ffffffffffffffffffffffffffffffffffffffff1663150b7a02612d73612330565b8786866040518563ffffffff1660e01b8152600401612d959493929190614237565b602060405180830381600087803b158015612daf57600080fd5b505af1925050508015612de057506040513d601f19601f82011682018060405250810190612ddd91906134b3565b60015b612e63573d8060008114612e10576040519150601f19603f3d011682016040523d82523d6000602084013e612e15565b606091505b50600081511415612e5b576040517f08c379a0000000000000000000000000000000000000000000000000000000008152600401612e52906144aa565b60405180910390fd5b805181602001fd5b63150b7a0260e01b7bffffffffffffffffffffffffffffffffffffffffffffffffffffffff1916817bffffffffffffffffffffffffffffffffffffffffffffffffffffffff191614915050612eb8565b600190505b949350505050565b612eca8383612f2e565b612ed76000848484612d29565b612f16576040517f08c379a0000000000000000000000000000000000000000000000000000000008152600401612f0d906144aa565b60405180910390fd5b505050565b600080823b905060008111915050919050565b600073ffffffffffffffffffffffffffffffffffffffff168273ffffffffffffffffffffffffffffffffffffffff161415612f9e576040517f08c379a0000000000000000000000000000000000000000000000000000000008152600401612f95906145ca565b60405180910390fd5b612fa7816122c4565b15612fe7576040517f08c379a0000000000000000000000000000000000000000000000000000000008152600401612fde906144ca565b60405180910390fd5b612ff360008383612d24565b6001600360008473ffffffffffffffffffffffffffffffffffffffff1673ffffffffffffffffffffffffffffffffffffffff16815260200190815260200160002060008282546130439190614884565b92505081905550816002600083815260200190815260200160002060006101000a81548173ffffffffffffffffffffffffffffffffffffffff021916908373ffffffffffffffffffffffffffffffffffffffff160217905550808273ffffffffffffffffffffffffffffffffffffffff16600073ffffffffffffffffffffffffffffffffffffffff167fddf252ad1be2c89b69c2b068fc378daa952ba7f163c4a11628f55a4df523b3ef60405160405180910390a45050565b6040518060c001604052806060815260200160608152602001600081526020016000815260200160008152602001606081525090565b6040518060e00160405280600081526020016060815260200160608152602001600081526020016000815260200160008152602001606081525090565b82805461317b90614a4f565b90600052602060002090601f01602090048101928261319d57600085556131e4565b82601f106131b657805160ff19168380011785556131e4565b828001600101855582156131e4579182015b828111156131e35782518255916020019190600101906131c8565b5b5090506131f191906131f5565b5090565b5b8082111561320e5760008160009055506001016131f6565b5090565b6000613225613220846147c7565b614796565b90508281526020810184848401111561323d57600080fd5b613248848285614a0d565b509392505050565b60008135905061325f81614bc8565b92915050565b60008135905061327481614bdf565b92915050565b60008135905061328981614bf6565b92915050565b60008151905061329e81614bf6565b92915050565b600082601f8301126132b557600080fd5b81356132c5848260208601613212565b91505092915050565b6000813590506132dd81614c0d565b92915050565b6000602082840312156132f557600080fd5b600061330384828501613250565b91505092915050565b6000806040838503121561331f57600080fd5b600061332d85828601613250565b925050602061333e85828601613250565b9150509250929050565b60008060006060848603121561335d57600080fd5b600061336b86828701613250565b935050602061337c86828701613250565b925050604061338d868287016132ce565b9150509250925092565b600080600080608085870312156133ad57600080fd5b60006133bb87828801613250565b94505060206133cc87828801613250565b93505060406133dd878288016132ce565b925050606085013567ffffffffffffffff8111156133fa57600080fd5b613406878288016132a4565b91505092959194509250565b6000806040838503121561342557600080fd5b600061343385828601613250565b925050602061344485828601613265565b9150509250929050565b6000806040838503121561346157600080fd5b600061346f85828601613250565b9250506020613480858286016132ce565b9150509250929050565b60006020828403121561349c57600080fd5b60006134aa8482850161327a565b91505092915050565b6000602082840312156134c557600080fd5b60006134d38482850161328f565b91505092915050565b6000602082840312156134ee57600080fd5b60006134fc848285016132ce565b91505092915050565b60006135118383613fcb565b905092915050565b61352281614999565b82525050565b600061353382614807565b61353d8185614835565b93508360208202850161354f856147f7565b8060005b8581101561358b578484038952815161356c8582613505565b945061357783614828565b925060208a01995050600181019050613553565b50829750879550505050505092915050565b6135a6816149ab565b82525050565b60006135b782614812565b6135c18185614846565b93506135d1818560208601614a1c565b6135da81614bb7565b840191505092915050565b60006135f08261481d565b6135fa8185614857565b935061360a818560208601614a1c565b61361381614bb7565b840191505092915050565b60006136298261481d565b6136338185614868565b9350613643818560208601614a1c565b61364c81614bb7565b840191505092915050565b60006136628261481d565b61366c8185614879565b935061367c818560208601614a1c565b80840191505092915050565b6000613695600b83614879565b91507f202d2d204e465420233a200000000000000000000000000000000000000000006000830152600b82019050919050565b60006136d5600583614879565b91507f227d205d7d0000000000000000000000000000000000000000000000000000006000830152600582019050919050565b6000613715603283614868565b91507f4552433732313a207472616e7366657220746f206e6f6e20455243373231526560008301527f63656976657220696d706c656d656e74657200000000000000000000000000006020830152604082019050919050565b600061377b601c83614868565b91507f4552433732313a20746f6b656e20616c7265616479206d696e746564000000006000830152602082019050919050565b60006137bb600e83614879565b91507f2c20226d61785f76616c7565223a0000000000000000000000000000000000006000830152600e82019050919050565b60006137fb602483614868565b91507f4552433732313a207472616e7366657220746f20746865207a65726f2061646460008301527f72657373000000000000000000000000000000000000000000000000000000006020830152604082019050919050565b6000613861601983614868565b91507f4552433732313a20617070726f766520746f2063616c6c6572000000000000006000830152602082019050919050565b60006138a1602c83614868565b91507f4552433732313a206f70657261746f7220717565727920666f72206e6f6e657860008301527f697374656e7420746f6b656e00000000000000000000000000000000000000006020830152604082019050919050565b6000613907606383614879565b91507f222c20226465736372697074696f6e223a20225468697320697320616e204e4660008301527f542074686174206c6574732070656f706c6520706c617920696e20746865206760208301527f616d65204d657461766572736520506f6b656d6f6e21222c2022696d6167652260408301527f3a202200000000000000000000000000000000000000000000000000000000006060830152606382019050919050565b60006139b9602d83614868565b91507f4572726f722c2063686172616374657220206d7573742068617665204850207460008301527f6f2061747461636b20626f7373000000000000000000000000000000000000006020830152604082019050919050565b6000613a1f603883614868565b91507f4552433732313a20617070726f76652063616c6c6572206973206e6f74206f7760008301527f6e6572206e6f7220617070726f76656420666f7220616c6c00000000000000006020830152604082019050919050565b6000613a85602a83614868565b91507f4552433732313a2062616c616e636520717565727920666f7220746865207a6560008301527f726f2061646472657373000000000000000000000000000000000000000000006020830152604082019050919050565b6000613aeb602983614868565b91507f4552433732313a206f776e657220717565727920666f72206e6f6e657869737460008301527f656e7420746f6b656e00000000000000000000000000000000000000000000006020830152604082019050919050565b6000613b51602083614868565b91507f4552433732313a206d696e7420746f20746865207a65726f20616464726573736000830152602082019050919050565b6000613b91602c83614868565b91507f4552433732313a20617070726f76656420717565727920666f72206e6f6e657860008301527f697374656e7420746f6b656e00000000000000000000000000000000000000006020830152604082019050919050565b6000613bf7602983614868565b91507f4552433732313a207472616e73666572206f6620746f6b656e2074686174206960008301527f73206e6f74206f776e00000000000000000000000000000000000000000000006020830152604082019050919050565b6000613c5d602583614879565b91507f7d2c207b202274726169745f74797065223a202254797065222c202276616c7560008301527f65223a20220000000000000000000000000000000000000000000000000000006020830152602582019050919050565b6000613cc3600a83614879565b91507f7b226e616d65223a2022000000000000000000000000000000000000000000006000830152600a82019050919050565b6000613d03602183614868565b91507f4552433732313a20617070726f76616c20746f2063757272656e74206f776e6560008301527f72000000000000000000000000000000000000000000000000000000000000006020830152604082019050919050565b6000613d69601d83614879565b91507f646174613a6170706c69636174696f6e2f6a736f6e3b6261736536342c0000006000830152601d82019050919050565b6000613da9603183614868565b91507f4552433732313a207472616e736665722063616c6c6572206973206e6f74206f60008301527f776e6572206e6f7220617070726f7665640000000000000000000000000000006020830152604082019050919050565b6000613e0f603d83614879565b91507f222c202261747472696275746573223a205b207b202274726169745f7479706560008301527f223a20224865616c746820506f696e7473222c202276616c7565223a200000006020830152603d82019050919050565b6000613e75602d83614879565b91507f7d2c207b202274726169745f74797065223a202241747461636b2044616d616760008301527f65222c202276616c7565223a20000000000000000000000000000000000000006020830152602d82019050919050565b6000613edb602783614868565b91507f4572726f722c20626f7373206d757374206861766520485020746f206265206160008301527f747461636b6564000000000000000000000000000000000000000000000000006020830152604082019050919050565b600060c0830160008301518482036000860152613f5182826135e5565b91505060208301518482036020860152613f6b82826135e5565b9150506040830151613f80604086018261411f565b506060830151613f93606086018261411f565b506080830151613fa6608086018261411f565b5060a083015184820360a0860152613fbe82826135e5565b9150508091505092915050565b600060e083016000830151613fe3600086018261411f565b5060208301518482036020860152613ffb82826135e5565b9150506040830151848203604086015261401582826135e5565b915050606083015161402a606086018261411f565b50608083015161403d608086018261411f565b5060a083015161405060a086018261411f565b5060c083015184820360c086015261406882826135e5565b9150508091505092915050565b600060e08301600083015161408d600086018261411f565b50602083015184820360208601526140a582826135e5565b915050604083015184820360408601526140bf82826135e5565b91505060608301516140d4606086018261411f565b5060808301516140e7608086018261411f565b5060a08301516140fa60a086018261411f565b5060c083015184820360c086015261411282826135e5565b9150508091505092915050565b61412881614a03565b82525050565b61413781614a03565b82525050565b600061414882613cb6565b9150614154828a613657565b915061415f82613688565b915061416b8289613657565b9150614176826138fa565b91506141828288613657565b915061418d82613e02565b91506141998287613657565b91506141a4826137ae565b91506141b08286613657565b91506141bb82613e68565b91506141c78285613657565b91506141d282613c50565b91506141de8284613657565b91506141e9826136c8565b915081905098975050505050505050565b600061420582613d5c565b91506142118284613657565b915081905092915050565b60006020820190506142316000830184613519565b92915050565b600060808201905061424c6000830187613519565b6142596020830186613519565b614266604083018561412e565b818103606083015261427881846135ac565b905095945050505050565b60006060820190506142986000830186613519565b6142a5602083018561412e565b6142b2604083018461412e565b949350505050565b600060208201905081810360008301526142d48184613528565b905092915050565b60006020820190506142f1600083018461359d565b92915050565b60006020820190508181036000830152614311818461361e565b905092915050565b60006080820190508181036000830152614333818761361e565b90508181036020830152614347818661361e565b9050614356604083018561412e565b8181036060830152614368818461361e565b905095945050505050565b6000608082019050818103600083015261438d818761361e565b905081810360208301526143a1818661361e565b90506143b0604083018561412e565b6143bd606083018461412e565b95945050505050565b600060c08201905081810360008301526143e0818961361e565b905081810360208301526143f4818861361e565b9050614403604083018761412e565b614410606083018661412e565b61441d608083018561412e565b81810360a083015261442f818461361e565b9050979650505050505050565b60006040820190508181036000830152614456818561361e565b9050614465602083018461412e565b9392505050565b60006060820190508181036000830152614486818661361e565b9050614495602083018561412e565b6144a2604083018461412e565b949350505050565b600060208201905081810360008301526144c381613708565b9050919050565b600060208201905081810360008301526144e38161376e565b9050919050565b60006020820190508181036000830152614503816137ee565b9050919050565b6000602082019050818103600083015261452381613854565b9050919050565b6000602082019050818103600083015261454381613894565b9050919050565b60006020820190508181036000830152614563816139ac565b9050919050565b6000602082019050818103600083015261458381613a12565b9050919050565b600060208201905081810360008301526145a381613a78565b9050919050565b600060208201905081810360008301526145c381613ade565b9050919050565b600060208201905081810360008301526145e381613b44565b9050919050565b6000602082019050818103600083015261460381613b84565b9050919050565b6000602082019050818103600083015261462381613bea565b9050919050565b6000602082019050818103600083015261464381613cf6565b9050919050565b6000602082019050818103600083015261466381613d9c565b9050919050565b6000602082019050818103600083015261468381613ece565b9050919050565b600060208201905081810360008301526146a48184613f34565b905092915050565b600060208201905081810360008301526146c68184614075565b905092915050565b60006020820190506146e3600083018461412e565b92915050565b600060e0820190506146fe600083018a61412e565b8181036020830152614710818961361e565b90508181036040830152614724818861361e565b9050614733606083018761412e565b614740608083018661412e565b61474d60a083018561412e565b81810360c083015261475f818461361e565b905098975050505050505050565b6000604082019050614782600083018561412e565b61478f602083018461412e565b9392505050565b6000604051905081810181811067ffffffffffffffff821117156147bd576147bc614b88565b5b8060405250919050565b600067ffffffffffffffff8211156147e2576147e1614b88565b5b601f19601f8301169050602081019050919050565b6000819050602082019050919050565b600081519050919050565b600081519050919050565b600081519050919050565b6000602082019050919050565b600082825260208201905092915050565b600082825260208201905092915050565b600082825260208201905092915050565b600082825260208201905092915050565b600081905092915050565b600061488f82614a03565b915061489a83614a03565b9250827fffffffffffffffffffffffffffffffffffffffffffffffffffffffffffffffff038211156148cf576148ce614afb565b5b828201905092915050565b60006148e582614a03565b91506148f083614a03565b925082614900576148ff614b2a565b5b828204905092915050565b600061491682614a03565b915061492183614a03565b9250817fffffffffffffffffffffffffffffffffffffffffffffffffffffffffffffffff048311821515161561495a57614959614afb565b5b828202905092915050565b600061497082614a03565b915061497b83614a03565b92508282101561498e5761498d614afb565b5b828203905092915050565b60006149a4826149e3565b9050919050565b60008115159050919050565b60007fffffffff0000000000000000000000000000000000000000000000000000000082169050919050565b600073ffffffffffffffffffffffffffffffffffffffff82169050919050565b6000819050919050565b82818337600083830152505050565b60005b83811015614a3a578082015181840152602081019050614a1f565b83811115614a49576000848401525b50505050565b60006002820490506001821680614a6757607f821691505b60208210811415614a7b57614a7a614b59565b5b50919050565b6000614a8c82614a03565b91507fffffffffffffffffffffffffffffffffffffffffffffffffffffffffffffffff821415614abf57614abe614afb565b5b600182019050919050565b6000614ad582614a03565b9150614ae083614a03565b925082614af057614aef614b2a565b5b828206905092915050565b7f4e487b7100000000000000000000000000000000000000000000000000000000600052601160045260246000fd5b7f4e487b7100000000000000000000000000000000000000000000000000000000600052601260045260246000fd5b7f4e487b7100000000000000000000000000000000000000000000000000000000600052602260045260246000fd5b7f4e487b7100000000000000000000000000000000000000000000000000000000600052604160045260246000fd5b6000601f19601f8301169050919050565b614bd181614999565b8114614bdc57600080fd5b50565b614be8816149ab565b8114614bf357600080fd5b50565b614bff816149b7565b8114614c0a57600080fd5b50565b614c1681614a03565b8114614c2157600080fd5b5056fe4142434445464748494a4b4c4d4e4f505152535455565758595a6162636465666768696a6b6c6d6e6f707172737475767778797a303132333435363738392b2f426f73732061747461636b656420706c617965722e204e657720706c617965722068703a2025730a4d696e746564204e465420772f20746f6b656e496420257320616e6420636861726163746572496e646578202573506c617965722061747461636b656420626f73732c20626f73732068703a2025730a0a506c6179657220772f206368617261637465722025732061626f757420746f2061747461636b2e2048617320257320485020616e64202573204144a2646970667358221220828b5bf5405e824135e8d770ab94bed74a72937d90dd125f405491cd1252007c64736f6c63430008000033446f6e6520696e697469616c697a696e6720257320772f2048502025732c20696d67202573446f6e6520696e697469616c697a696e6720626f737320257320772f2048502025732c20696d67202573",
  "linkReferences": {},
  "deployedLinkReferences": {}
}